{
  "_format": "hh-sol-artifact-1",
  "contractName": "BorrowYourCar",
  "sourceName": "contracts/BorrowYourCar.sol",
  "abi": [
    {
      "inputs": [
        {
          "internalType": "address",
          "name": "tokenAddress",
          "type": "address"
        }
      ],
      "stateMutability": "nonpayable",
      "type": "constructor"
    },
    {
      "inputs": [
        {
          "internalType": "address",
          "name": "sender",
          "type": "address"
        },
        {
          "internalType": "uint256",
          "name": "tokenId",
          "type": "uint256"
        },
        {
          "internalType": "address",
          "name": "owner",
          "type": "address"
        }
      ],
      "name": "ERC721IncorrectOwner",
      "type": "error"
    },
    {
      "inputs": [
        {
          "internalType": "address",
          "name": "operator",
          "type": "address"
        },
        {
          "internalType": "uint256",
          "name": "tokenId",
          "type": "uint256"
        }
      ],
      "name": "ERC721InsufficientApproval",
      "type": "error"
    },
    {
      "inputs": [
        {
          "internalType": "address",
          "name": "approver",
          "type": "address"
        }
      ],
      "name": "ERC721InvalidApprover",
      "type": "error"
    },
    {
      "inputs": [
        {
          "internalType": "address",
          "name": "operator",
          "type": "address"
        }
      ],
      "name": "ERC721InvalidOperator",
      "type": "error"
    },
    {
      "inputs": [
        {
          "internalType": "address",
          "name": "owner",
          "type": "address"
        }
      ],
      "name": "ERC721InvalidOwner",
      "type": "error"
    },
    {
      "inputs": [
        {
          "internalType": "address",
          "name": "receiver",
          "type": "address"
        }
      ],
      "name": "ERC721InvalidReceiver",
      "type": "error"
    },
    {
      "inputs": [
        {
          "internalType": "address",
          "name": "sender",
          "type": "address"
        }
      ],
      "name": "ERC721InvalidSender",
      "type": "error"
    },
    {
      "inputs": [
        {
          "internalType": "uint256",
          "name": "tokenId",
          "type": "uint256"
        }
      ],
      "name": "ERC721NonexistentToken",
      "type": "error"
    },
    {
      "anonymous": false,
      "inputs": [
        {
          "indexed": true,
          "internalType": "address",
          "name": "owner",
          "type": "address"
        },
        {
          "indexed": true,
          "internalType": "address",
          "name": "approved",
          "type": "address"
        },
        {
          "indexed": true,
          "internalType": "uint256",
          "name": "tokenId",
          "type": "uint256"
        }
      ],
      "name": "Approval",
      "type": "event"
    },
    {
      "anonymous": false,
      "inputs": [
        {
          "indexed": true,
          "internalType": "address",
          "name": "owner",
          "type": "address"
        },
        {
          "indexed": true,
          "internalType": "address",
          "name": "operator",
          "type": "address"
        },
        {
          "indexed": false,
          "internalType": "bool",
          "name": "approved",
          "type": "bool"
        }
      ],
      "name": "ApprovalForAll",
      "type": "event"
    },
    {
      "anonymous": false,
      "inputs": [
        {
          "indexed": false,
          "internalType": "uint256",
          "name": "carId",
          "type": "uint256"
        },
        {
          "indexed": false,
          "internalType": "address",
          "name": "borrower",
          "type": "address"
        },
        {
          "indexed": false,
          "internalType": "uint256",
          "name": "startTime",
          "type": "uint256"
        },
        {
          "indexed": false,
          "internalType": "uint256",
          "name": "duration",
          "type": "uint256"
        }
      ],
      "name": "CarBorrowed",
      "type": "event"
    },
    {
      "anonymous": false,
      "inputs": [
        {
          "indexed": true,
          "internalType": "address",
          "name": "from",
          "type": "address"
        },
        {
          "indexed": true,
          "internalType": "address",
          "name": "to",
          "type": "address"
        },
        {
          "indexed": true,
          "internalType": "uint256",
          "name": "tokenId",
          "type": "uint256"
        }
      ],
      "name": "Transfer",
      "type": "event"
    },
    {
      "inputs": [],
      "name": "addCar",
      "outputs": [],
      "stateMutability": "nonpayable",
      "type": "function"
    },
    {
      "inputs": [
        {
          "internalType": "address",
          "name": "to",
          "type": "address"
        },
        {
          "internalType": "uint256",
          "name": "tokenId",
          "type": "uint256"
        }
      ],
      "name": "approve",
      "outputs": [],
      "stateMutability": "nonpayable",
      "type": "function"
    },
    {
      "inputs": [
        {
          "internalType": "uint256",
          "name": "",
          "type": "uint256"
        }
      ],
      "name": "availableCars",
      "outputs": [
        {
          "internalType": "uint256",
          "name": "",
          "type": "uint256"
        }
      ],
      "stateMutability": "view",
      "type": "function"
    },
    {
      "inputs": [
        {
          "internalType": "address",
          "name": "owner",
          "type": "address"
        }
      ],
      "name": "balanceOf",
      "outputs": [
        {
          "internalType": "uint256",
          "name": "",
          "type": "uint256"
        }
      ],
      "stateMutability": "view",
      "type": "function"
    },
    {
      "inputs": [
        {
          "internalType": "uint256",
          "name": "carId",
          "type": "uint256"
        },
        {
          "internalType": "uint256",
          "name": "duration",
          "type": "uint256"
        }
      ],
      "name": "borrowCar",
      "outputs": [],
      "stateMutability": "nonpayable",
      "type": "function"
    },
    {
      "inputs": [
        {
          "internalType": "uint256",
          "name": "",
          "type": "uint256"
        }
      ],
      "name": "borrowedCars",
      "outputs": [
        {
          "internalType": "uint256",
          "name": "",
          "type": "uint256"
        }
      ],
      "stateMutability": "view",
      "type": "function"
    },
    {
      "inputs": [
        {
          "internalType": "uint256",
          "name": "",
          "type": "uint256"
        }
      ],
      "name": "cars",
      "outputs": [
        {
          "internalType": "address",
          "name": "owner",
          "type": "address"
        },
        {
          "internalType": "address",
          "name": "borrower",
          "type": "address"
        },
        {
          "internalType": "uint256",
          "name": "borrowUntil",
          "type": "uint256"
        },
        {
          "internalType": "bool",
          "name": "isAvailable",
          "type": "bool"
        }
      ],
      "stateMutability": "view",
      "type": "function"
    },
    {
      "inputs": [
        {
          "internalType": "uint256",
          "name": "tokenId",
          "type": "uint256"
        }
      ],
      "name": "getApproved",
      "outputs": [
        {
          "internalType": "address",
          "name": "",
          "type": "address"
        }
      ],
      "stateMutability": "view",
      "type": "function"
    },
    {
      "inputs": [],
      "name": "getAvailableCars",
      "outputs": [
        {
          "internalType": "uint256[]",
          "name": "",
          "type": "uint256[]"
        }
      ],
      "stateMutability": "view",
      "type": "function"
    },
    {
      "inputs": [
        {
          "internalType": "uint256",
          "name": "carId",
          "type": "uint256"
        }
      ],
      "name": "getBorrower",
      "outputs": [
        {
          "internalType": "address",
          "name": "",
          "type": "address"
        }
      ],
      "stateMutability": "view",
      "type": "function"
    },
    {
      "inputs": [],
      "name": "getOwnedCars",
      "outputs": [
        {
          "internalType": "uint256[]",
          "name": "",
          "type": "uint256[]"
        }
      ],
      "stateMutability": "view",
      "type": "function"
    },
    {
      "inputs": [
        {
          "internalType": "uint256",
          "name": "carId",
          "type": "uint256"
        }
      ],
      "name": "getOwner",
      "outputs": [
        {
          "internalType": "address",
          "name": "",
          "type": "address"
        }
      ],
      "stateMutability": "view",
      "type": "function"
    },
    {
      "inputs": [
        {
          "internalType": "address",
          "name": "owner",
          "type": "address"
        },
        {
          "internalType": "address",
          "name": "operator",
          "type": "address"
        }
      ],
      "name": "isApprovedForAll",
      "outputs": [
        {
          "internalType": "bool",
          "name": "",
          "type": "bool"
        }
      ],
      "stateMutability": "view",
      "type": "function"
    },
    {
      "inputs": [],
      "name": "name",
      "outputs": [
        {
          "internalType": "string",
          "name": "",
          "type": "string"
        }
      ],
      "stateMutability": "view",
      "type": "function"
    },
    {
      "inputs": [
        {
          "internalType": "address",
          "name": "",
          "type": "address"
        },
        {
          "internalType": "uint256",
          "name": "",
          "type": "uint256"
        }
      ],
      "name": "ownedCars",
      "outputs": [
        {
          "internalType": "uint256",
          "name": "",
          "type": "uint256"
        }
      ],
      "stateMutability": "view",
      "type": "function"
    },
    {
      "inputs": [
        {
          "internalType": "uint256",
          "name": "tokenId",
          "type": "uint256"
        }
      ],
      "name": "ownerOf",
      "outputs": [
        {
          "internalType": "address",
          "name": "",
          "type": "address"
        }
      ],
      "stateMutability": "view",
      "type": "function"
    },
    {
      "inputs": [],
      "name": "qiushiToken",
      "outputs": [
        {
          "internalType": "contract QiushiToken",
          "name": "",
          "type": "address"
        }
      ],
      "stateMutability": "view",
      "type": "function"
    },
    {
      "inputs": [
        {
          "internalType": "address",
          "name": "from",
          "type": "address"
        },
        {
          "internalType": "address",
          "name": "to",
          "type": "address"
        },
        {
          "internalType": "uint256",
          "name": "tokenId",
          "type": "uint256"
        }
      ],
      "name": "safeTransferFrom",
      "outputs": [],
      "stateMutability": "nonpayable",
      "type": "function"
    },
    {
      "inputs": [
        {
          "internalType": "address",
          "name": "from",
          "type": "address"
        },
        {
          "internalType": "address",
          "name": "to",
          "type": "address"
        },
        {
          "internalType": "uint256",
          "name": "tokenId",
          "type": "uint256"
        },
        {
          "internalType": "bytes",
          "name": "data",
          "type": "bytes"
        }
      ],
      "name": "safeTransferFrom",
      "outputs": [],
      "stateMutability": "nonpayable",
      "type": "function"
    },
    {
      "inputs": [
        {
          "internalType": "address",
          "name": "operator",
          "type": "address"
        },
        {
          "internalType": "bool",
          "name": "approved",
          "type": "bool"
        }
      ],
      "name": "setApprovalForAll",
      "outputs": [],
      "stateMutability": "nonpayable",
      "type": "function"
    },
    {
      "inputs": [
        {
          "internalType": "bytes4",
          "name": "interfaceId",
          "type": "bytes4"
        }
      ],
      "name": "supportsInterface",
      "outputs": [
        {
          "internalType": "bool",
          "name": "",
          "type": "bool"
        }
      ],
      "stateMutability": "view",
      "type": "function"
    },
    {
      "inputs": [],
      "name": "symbol",
      "outputs": [
        {
          "internalType": "string",
          "name": "",
          "type": "string"
        }
      ],
      "stateMutability": "view",
      "type": "function"
    },
    {
      "inputs": [
        {
          "internalType": "uint256",
          "name": "tokenId",
          "type": "uint256"
        }
      ],
      "name": "tokenURI",
      "outputs": [
        {
          "internalType": "string",
          "name": "",
          "type": "string"
        }
      ],
      "stateMutability": "view",
      "type": "function"
    },
    {
      "inputs": [
        {
          "internalType": "address",
          "name": "from",
          "type": "address"
        },
        {
          "internalType": "address",
          "name": "to",
          "type": "address"
        },
        {
          "internalType": "uint256",
          "name": "tokenId",
          "type": "uint256"
        }
      ],
      "name": "transferFrom",
      "outputs": [],
      "stateMutability": "nonpayable",
      "type": "function"
    },
    {
      "inputs": [],
      "name": "updateInfo",
      "outputs": [],
      "stateMutability": "nonpayable",
      "type": "function"
    }
  ],
  "bytecode": "0x60806040523480156200001157600080fd5b5060405162001c1938038062001c198339810160408190526200003491620000c0565b6040518060400160405280600d81526020016c2137b93937bbacb7bab921b0b960991b8152506040518060400160405280600381526020016242594360e81b815250816000908162000087919062000197565b50600162000096828262000197565b5050600a80546001600160a01b0319166001600160a01b0393909316929092179091555062000263565b600060208284031215620000d357600080fd5b81516001600160a01b0381168114620000eb57600080fd5b9392505050565b634e487b7160e01b600052604160045260246000fd5b600181811c908216806200011d57607f821691505b6020821081036200013e57634e487b7160e01b600052602260045260246000fd5b50919050565b601f8211156200019257600081815260208120601f850160051c810160208610156200016d5750805b601f850160051c820191505b818110156200018e5782815560010162000179565b5050505b505050565b81516001600160401b03811115620001b357620001b3620000f2565b620001cb81620001c4845462000108565b8462000144565b602080601f831160018114620002035760008415620001ea5750858301515b600019600386901b1c1916600185901b1785556200018e565b600085815260208120601f198616915b82811015620002345788860151825594840194600190910190840162000213565b5085821015620002535787850151600019600388901b60f8161c191681555b5050505050600190811b01905550565b6119a680620002736000396000f3fe608060405234801561001057600080fd5b50600436106101735760003560e01c80638500d919116100de578063b88d4fde11610097578063e865af0411610071578063e865af041461033d578063e985e9c514610350578063f1354acc14610363578063f7746e361461036b57600080fd5b8063b88d4fde146102ee578063c41a360a14610301578063c87b56dd1461032a57600080fd5b80638500d9191461029d57806395d89b41146102b0578063a22cb465146102b8578063a5adf8ea146102cb578063b66935ed146102d3578063b7c9252c146102e657600080fd5b80633802ebf5116101305780633802ebf51461022957806342842e0e1461023c578063433b80461461024f5780635bb070a7146102645780636352211e1461027757806370a082311461028a57600080fd5b806301ffc9a71461017857806306fdde03146101a0578063081812fc146101b5578063095ea7b3146101e05780630a4d04e4146101f557806323b872dd14610216575b600080fd5b61018b6101863660046114d3565b6103dd565b60405190151581526020015b60405180910390f35b6101a861042f565b6040516101979190611540565b6101c86101c3366004611553565b6104c1565b6040516001600160a01b039091168152602001610197565b6101f36101ee366004611583565b6104ea565b005b610208610203366004611553565b6104f9565b604051908152602001610197565b6101f36102243660046115ad565b61051a565b610208610237366004611553565b6105aa565b6101f361024a3660046115ad565b6105ba565b6102576105da565b60405161019791906115e9565b600a546101c8906001600160a01b031681565b6101c8610285366004611553565b610631565b61020861029836600461162d565b61063c565b6101c86102ab366004611553565b610684565b6101a86106c8565b6101f36102c6366004611656565b6106d7565b6102576106e2565b6102086102e1366004611583565b610741565b6101f3610772565b6101f36102fc3660046116a3565b61087a565b6101c861030f366004611553565b6000908152600660205260409020546001600160a01b031690565b6101a8610338366004611553565b610891565b6101f361034b36600461177f565b610906565b61018b61035e3660046117a1565b610bd8565b6101f3610c06565b6103b0610379366004611553565b60066020526000908152604090208054600182015460028301546003909301546001600160a01b0392831693919092169160ff1684565b604080516001600160a01b0395861681529490931660208501529183015215156060820152608001610197565b60006001600160e01b031982166380ac58cd60e01b148061040e57506001600160e01b03198216635b5e139f60e01b145b8061042957506301ffc9a760e01b6001600160e01b03198316145b92915050565b60606000805461043e906117d4565b80601f016020809104026020016040519081016040528092919081815260200182805461046a906117d4565b80156104b75780601f1061048c576101008083540402835291602001916104b7565b820191906000526020600020905b81548152906001019060200180831161049a57829003601f168201915b5050505050905090565b60006104cc82610d2e565b506000828152600460205260409020546001600160a01b0316610429565b6104f5828233610d67565b5050565b6009818154811061050957600080fd5b600091825260209091200154905081565b6001600160a01b03821661054957604051633250574960e11b8152600060048201526024015b60405180910390fd5b6000610556838333610d74565b9050836001600160a01b0316816001600160a01b0316146105a4576040516364283d7b60e01b81526001600160a01b0380861660048301526024820184905282166044820152606401610540565b50505050565b6008818154811061050957600080fd5b6105d58383836040518060200160405280600081525061087a565b505050565b606060088054806020026020016040519081016040528092919081815260200182805480156104b757602002820191906000526020600020905b815481526020019060010190808311610614575050505050905090565b600061042982610d2e565b60006001600160a01b038216610668576040516322718ad960e21b815260006004820152602401610540565b506001600160a01b031660009081526003602052604090205490565b60008181526006602052604081206002015442116106bb57506000908152600660205260409020600101546001600160a01b031690565b506000919050565b919050565b60606001805461043e906117d4565b6104f5338383610e6d565b336000908152600760209081526040918290208054835181840281018401909452808452606093928301828280156104b75760200282019190600052602060002090815481526020019060010190808311610614575050505050905090565b6007602052816000526040600020818154811061075d57600080fd5b90600052602060002001600091509150505481565b60005b600954811015610877574260066000600984815481106107975761079761180e565b9060005260206000200154815260200190815260200160002060020154101561086557600160066000600984815481106107d3576107d361180e565b9060005260206000200154815260200190815260200160002060030160006101000a81548160ff02191690831515021790555060086009828154811061081b5761081b61180e565b600091825260208083209091015483546001810185559383529120909101556009805461086591908190849081106108555761085561180e565b9060005260206000200154610f0c565b8061086f8161183a565b915050610775565b50565b61088584848461051a565b6105a484848484610fc3565b606061089c82610d2e565b5060006108b460408051602081019091526000815290565b905060008151116108d457604051806020016040528060008152506108ff565b806108de846110ec565b6040516020016108ef929190611853565b6040516020818303038152906040525b9392505050565b600082815260066020526040902054336001600160a01b039091160361096e5760405162461bcd60e51b815260206004820152601d60248201527f596f752061726520746865206f776e6572206f662074686973206361720000006044820152606401610540565b6000828152600660205260409020600381015460ff166109db5760405162461bcd60e51b815260206004820152602260248201527f436172206973206e6f7420617661696c61626c6520666f7220626f72726f77696044820152616e6760f01b6064820152608401610540565b60006109e9610e1084611882565b600a546040516370a0823160e01b815233600482015291925082916001600160a01b03909116906370a0823190602401602060405180830381865afa158015610a36573d6000803e3d6000fd5b505050506040513d601f19601f82011682018060405250810190610a5a91906118a4565b1015610a9f5760405162461bcd60e51b8152602060048201526014602482015273496e73756666696369656e742062616c616e636560601b6044820152606401610540565b600a5482546040516323b872dd60e01b81523360048201526001600160a01b039182166024820152604481018490529116906323b872dd906064016020604051808303816000875af1158015610af9573d6000803e3d6000fd5b505050506040513d601f19601f82011682018060405250810190610b1d91906118bd565b5060038201805460ff191690556001820180546001600160a01b03191633179055610b4883426118da565b6002830155610b58600885610f0c565b600980546001810182556000919091527f6e1540171b6c0c960b71a7020d9f60077f6af931a8bbf590da0223dacf75c7af018490556040805185815233602082015242818301526060810185905290517f8879d78706834dc00d82232992f71250fab6a1f70b08260968253950083d88cd9181900360800190a150505050565b6001600160a01b03918216600090815260056020908152604080832093909416825291909152205460ff1690565b6000424433604051602001610c4093929190928352602083019190915260601b6bffffffffffffffffffffffff1916604082015260540190565b6040516020818303038152906040528051906020012060001c9050610c65338261117f565b60408051608081018252338082526000602080840182815284860183815260016060870181815289865260068552888620975188546001600160a01b03199081166001600160a01b03928316178a55945189840180549096169116179093559051600287015590516003909501805460ff1916951515959095179094559181526007825292832080548084018255908452908320018390556008805491820181559091527ff3f7a9fe364faab93b216da50a3214154f22a0a2b415b23a84c8169e8b636ee30155565b6000818152600260205260408120546001600160a01b03168061042957604051637e27328960e01b815260048101849052602401610540565b6105d58383836001611199565b6000828152600260205260408120546001600160a01b0390811690831615610da157610da181848661129f565b6001600160a01b03811615610ddf57610dbe600085600080611199565b6001600160a01b038116600090815260036020526040902080546000190190555b6001600160a01b03851615610e0e576001600160a01b0385166000908152600360205260409020805460010190555b60008481526002602052604080822080546001600160a01b0319166001600160a01b0389811691821790925591518793918516917fddf252ad1be2c89b69c2b068fc378daa952ba7f163c4a11628f55a4df523b3ef91a4949350505050565b6001600160a01b038216610e9f57604051630b61174360e31b81526001600160a01b0383166004820152602401610540565b6001600160a01b03838116600081815260056020908152604080832094871680845294825291829020805460ff191686151590811790915591519182527f17307eab39ab6107e8899845ad3d59bd9653f200f220920489ca2b5937696c31910160405180910390a3505050565b60005b82548110156105d55781838281548110610f2b57610f2b61180e565b906000526020600020015403610fb15782548390610f4b906001906118ed565b81548110610f5b57610f5b61180e565b9060005260206000200154838281548110610f7857610f7861180e565b906000526020600020018190555082805480610f9657610f96611900565b60019003818190600052602060002001600090559055505050565b80610fbb8161183a565b915050610f0f565b6001600160a01b0383163b156105a457604051630a85bd0160e11b81526001600160a01b0384169063150b7a0290611005903390889087908790600401611916565b6020604051808303816000875af1925050508015611040575060408051601f3d908101601f1916820190925261103d91810190611953565b60015b6110a9573d80801561106e576040519150601f19603f3d011682016040523d82523d6000602084013e611073565b606091505b5080516000036110a157604051633250574960e11b81526001600160a01b0385166004820152602401610540565b805181602001fd5b6001600160e01b03198116630a85bd0160e11b146110e557604051633250574960e11b81526001600160a01b0385166004820152602401610540565b5050505050565b606060006110f983611303565b600101905060008167ffffffffffffffff8111156111195761111961168d565b6040519080825280601f01601f191660200182016040528015611143576020820181803683370190505b5090508181016020015b600019016f181899199a1a9b1b9c1cb0b131b232b360811b600a86061a8153600a850494508461114d57509392505050565b6104f58282604051806020016040528060008152506113db565b80806111ad57506001600160a01b03821615155b1561126f5760006111bd84610d2e565b90506001600160a01b038316158015906111e95750826001600160a01b0316816001600160a01b031614155b80156111fc57506111fa8184610bd8565b155b156112255760405163a9fbf51f60e01b81526001600160a01b0384166004820152602401610540565b811561126d5783856001600160a01b0316826001600160a01b03167f8c5be1e5ebec7d5bd14f71427d1e84f3dd0314c0f7b2291e5b200ac8c7c3b92560405160405180910390a45b505b5050600090815260046020526040902080546001600160a01b0319166001600160a01b0392909216919091179055565b6112aa8383836113f2565b6105d5576001600160a01b0383166112d857604051637e27328960e01b815260048101829052602401610540565b60405163177e802f60e01b81526001600160a01b038316600482015260248101829052604401610540565b60008072184f03e93ff9f4daa797ed6e38ed64bf6a1f0160401b83106113425772184f03e93ff9f4daa797ed6e38ed64bf6a1f0160401b830492506040015b6d04ee2d6d415b85acef8100000000831061136e576d04ee2d6d415b85acef8100000000830492506020015b662386f26fc10000831061138c57662386f26fc10000830492506010015b6305f5e10083106113a4576305f5e100830492506008015b61271083106113b857612710830492506004015b606483106113ca576064830492506002015b600a83106104295760010192915050565b6113e58383611458565b6105d56000848484610fc3565b60006001600160a01b038316158015906114505750826001600160a01b0316846001600160a01b0316148061142c575061142c8484610bd8565b8061145057506000828152600460205260409020546001600160a01b038481169116145b949350505050565b6001600160a01b03821661148257604051633250574960e11b815260006004820152602401610540565b600061149083836000610d74565b90506001600160a01b038116156105d5576040516339e3563760e11b815260006004820152602401610540565b6001600160e01b03198116811461087757600080fd5b6000602082840312156114e557600080fd5b81356108ff816114bd565b60005b8381101561150b5781810151838201526020016114f3565b50506000910152565b6000815180845261152c8160208601602086016114f0565b601f01601f19169290920160200192915050565b6020815260006108ff6020830184611514565b60006020828403121561156557600080fd5b5035919050565b80356001600160a01b03811681146106c357600080fd5b6000806040838503121561159657600080fd5b61159f8361156c565b946020939093013593505050565b6000806000606084860312156115c257600080fd5b6115cb8461156c565b92506115d96020850161156c565b9150604084013590509250925092565b6020808252825182820181905260009190848201906040850190845b8181101561162157835183529284019291840191600101611605565b50909695505050505050565b60006020828403121561163f57600080fd5b6108ff8261156c565b801515811461087757600080fd5b6000806040838503121561166957600080fd5b6116728361156c565b9150602083013561168281611648565b809150509250929050565b634e487b7160e01b600052604160045260246000fd5b600080600080608085870312156116b957600080fd5b6116c28561156c565b93506116d06020860161156c565b925060408501359150606085013567ffffffffffffffff808211156116f457600080fd5b818701915087601f83011261170857600080fd5b81358181111561171a5761171a61168d565b604051601f8201601f19908116603f011681019083821181831017156117425761174261168d565b816040528281528a602084870101111561175b57600080fd5b82602086016020830137600060208483010152809550505050505092959194509250565b6000806040838503121561179257600080fd5b50508035926020909101359150565b600080604083850312156117b457600080fd5b6117bd8361156c565b91506117cb6020840161156c565b90509250929050565b600181811c908216806117e857607f821691505b60208210810361180857634e487b7160e01b600052602260045260246000fd5b50919050565b634e487b7160e01b600052603260045260246000fd5b634e487b7160e01b600052601160045260246000fd5b60006001820161184c5761184c611824565b5060010190565b600083516118658184602088016114f0565b8351908301906118798183602088016114f0565b01949350505050565b60008261189f57634e487b7160e01b600052601260045260246000fd5b500490565b6000602082840312156118b657600080fd5b5051919050565b6000602082840312156118cf57600080fd5b81516108ff81611648565b8082018082111561042957610429611824565b8181038181111561042957610429611824565b634e487b7160e01b600052603160045260246000fd5b6001600160a01b038581168252841660208201526040810183905260806060820181905260009061194990830184611514565b9695505050505050565b60006020828403121561196557600080fd5b81516108ff816114bd56fea2646970667358221220f81dfb91d4ccc15ec0b94ca9f6348982b6dc3cb95f28a1984a9811eec8021f9d64736f6c63430008140033",
  "linkReferences": {},
  "deployedLinkReferences": {}
}