{
  "_format": "hh-sol-artifact-1",
  "contractName": "QiushiToken",
  "sourceName": "contracts/QiushiToken.sol",
  "abi": [
    {
      "inputs": [],
      "stateMutability": "nonpayable",
      "type": "constructor"
    },
    {
      "inputs": [
        {
          "internalType": "address",
          "name": "spender",
          "type": "address"
        },
        {
          "internalType": "uint256",
          "name": "allowance",
          "type": "uint256"
        },
        {
          "internalType": "uint256",
          "name": "needed",
          "type": "uint256"
        }
      ],
      "name": "ERC20InsufficientAllowance",
      "type": "error"
    },
    {
      "inputs": [
        {
          "internalType": "address",
          "name": "sender",
          "type": "address"
        },
        {
          "internalType": "uint256",
          "name": "balance",
          "type": "uint256"
        },
        {
          "internalType": "uint256",
          "name": "needed",
          "type": "uint256"
        }
      ],
      "name": "ERC20InsufficientBalance",
      "type": "error"
    },
    {
      "inputs": [
        {
          "internalType": "address",
          "name": "approver",
          "type": "address"
        }
      ],
      "name": "ERC20InvalidApprover",
      "type": "error"
    },
    {
      "inputs": [
        {
          "internalType": "address",
          "name": "receiver",
          "type": "address"
        }
      ],
      "name": "ERC20InvalidReceiver",
      "type": "error"
    },
    {
      "inputs": [
        {
          "internalType": "address",
          "name": "sender",
          "type": "address"
        }
      ],
      "name": "ERC20InvalidSender",
      "type": "error"
    },
    {
      "inputs": [
        {
          "internalType": "address",
          "name": "spender",
          "type": "address"
        }
      ],
      "name": "ERC20InvalidSpender",
      "type": "error"
    },
    {
      "anonymous": false,
      "inputs": [
        {
          "indexed": true,
          "internalType": "address",
          "name": "owner",
          "type": "address"
        },
        {
          "indexed": true,
          "internalType": "address",
          "name": "spender",
          "type": "address"
        },
        {
          "indexed": false,
          "internalType": "uint256",
          "name": "value",
          "type": "uint256"
        }
      ],
      "name": "Approval",
      "type": "event"
    },
    {
      "anonymous": false,
      "inputs": [
        {
          "indexed": true,
          "internalType": "address",
          "name": "from",
          "type": "address"
        },
        {
          "indexed": true,
          "internalType": "address",
          "name": "to",
          "type": "address"
        },
        {
          "indexed": false,
          "internalType": "uint256",
          "name": "value",
          "type": "uint256"
        }
      ],
      "name": "Transfer",
      "type": "event"
    },
    {
      "inputs": [],
      "name": "airdrop",
      "outputs": [],
      "stateMutability": "nonpayable",
      "type": "function"
    },
    {
      "inputs": [
        {
          "internalType": "address",
          "name": "owner",
          "type": "address"
        },
        {
          "internalType": "address",
          "name": "spender",
          "type": "address"
        }
      ],
      "name": "allowance",
      "outputs": [
        {
          "internalType": "uint256",
          "name": "",
          "type": "uint256"
        }
      ],
      "stateMutability": "view",
      "type": "function"
    },
    {
      "inputs": [
        {
          "internalType": "address",
          "name": "spender",
          "type": "address"
        },
        {
          "internalType": "uint256",
          "name": "value",
          "type": "uint256"
        }
      ],
      "name": "approve",
      "outputs": [
        {
          "internalType": "bool",
          "name": "",
          "type": "bool"
        }
      ],
      "stateMutability": "nonpayable",
      "type": "function"
    },
    {
      "inputs": [
        {
          "internalType": "address",
          "name": "account",
          "type": "address"
        }
      ],
      "name": "balanceOf",
      "outputs": [
        {
          "internalType": "uint256",
          "name": "",
          "type": "uint256"
        }
      ],
      "stateMutability": "view",
      "type": "function"
    },
    {
      "inputs": [],
      "name": "decimals",
      "outputs": [
        {
          "internalType": "uint8",
          "name": "",
          "type": "uint8"
        }
      ],
      "stateMutability": "view",
      "type": "function"
    },
    {
      "inputs": [],
      "name": "name",
      "outputs": [
        {
          "internalType": "string",
          "name": "",
          "type": "string"
        }
      ],
      "stateMutability": "view",
      "type": "function"
    },
    {
      "inputs": [],
      "name": "symbol",
      "outputs": [
        {
          "internalType": "string",
          "name": "",
          "type": "string"
        }
      ],
      "stateMutability": "view",
      "type": "function"
    },
    {
      "inputs": [],
      "name": "totalSupply",
      "outputs": [
        {
          "internalType": "uint256",
          "name": "",
          "type": "uint256"
        }
      ],
      "stateMutability": "view",
      "type": "function"
    },
    {
      "inputs": [
        {
          "internalType": "address",
          "name": "to",
          "type": "address"
        },
        {
          "internalType": "uint256",
          "name": "value",
          "type": "uint256"
        }
      ],
      "name": "transfer",
      "outputs": [
        {
          "internalType": "bool",
          "name": "",
          "type": "bool"
        }
      ],
      "stateMutability": "nonpayable",
      "type": "function"
    },
    {
      "inputs": [
        {
          "internalType": "address",
          "name": "from",
          "type": "address"
        },
        {
          "internalType": "address",
          "name": "to",
          "type": "address"
        },
        {
          "internalType": "uint256",
          "name": "value",
          "type": "uint256"
        }
      ],
      "name": "transferFrom",
      "outputs": [
        {
          "internalType": "bool",
          "name": "",
          "type": "bool"
        }
      ],
      "stateMutability": "nonpayable",
      "type": "function"
    }
  ],
  "bytecode": "0x608060405234801561001057600080fd5b506040518060400160405280600b81526020016a28b4bab9b434aa37b5b2b760a91b8152506040518060400160405280600381526020016251534360e81b81525081600390816100609190610114565b50600461006d8282610114565b5050506101d3565b634e487b7160e01b600052604160045260246000fd5b600181811c9082168061009f57607f821691505b6020821081036100bf57634e487b7160e01b600052602260045260246000fd5b50919050565b601f82111561010f57600081815260208120601f850160051c810160208610156100ec5750805b601f850160051c820191505b8181101561010b578281556001016100f8565b5050505b505050565b81516001600160401b0381111561012d5761012d610075565b6101418161013b845461008b565b846100c5565b602080601f831160018114610176576000841561015e5750858301515b600019600386901b1c1916600185901b17855561010b565b600085815260208120601f198616915b828110156101a557888601518255948401946001909101908401610186565b50858210156101c35787850151600019600388901b60f8161c191681555b5050505050600190811b01905550565b610805806101e26000396000f3fe608060405234801561001057600080fd5b506004361061009e5760003560e01c80633884d635116100665780633884d6351461011857806370a082311461012257806395d89b411461014b578063a9059cbb14610153578063dd62ed3e1461016657600080fd5b806306fdde03146100a3578063095ea7b3146100c157806318160ddd146100e457806323b872dd146100f6578063313ce56714610109575b600080fd5b6100ab61019f565b6040516100b8919061064f565b60405180910390f35b6100d46100cf3660046106b9565b610231565b60405190151581526020016100b8565b6002545b6040519081526020016100b8565b6100d46101043660046106e3565b61024b565b604051601281526020016100b8565b61012061026f565b005b6100e861013036600461071f565b6001600160a01b031660009081526020819052604090205490565b6100ab61030a565b6100d46101613660046106b9565b610319565b6100e8610174366004610741565b6001600160a01b03918216600090815260016020908152604080832093909416825291909152205490565b6060600380546101ae90610774565b80601f01602080910402602001604051908101604052809291908181526020018280546101da90610774565b80156102275780601f106101fc57610100808354040283529160200191610227565b820191906000526020600020905b81548152906001019060200180831161020a57829003601f168201915b5050505050905090565b60003361023f818585610327565b60019150505b92915050565b600033610259858285610339565b6102648585856103b7565b506001949350505050565b3360009081526005602052604090205460ff16156102e25760405162461bcd60e51b815260206004820152602560248201527f5468697320757365722068617320636c61696d65642061697264726f7020616c604482015264726561647960d81b60648201526084015b60405180910390fd5b6102ee33612710610416565b336000908152600560205260409020805460ff19166001179055565b6060600480546101ae90610774565b60003361023f8185856103b7565b6103348383836001610450565b505050565b6001600160a01b0383811660009081526001602090815260408083209386168352929052205460001981146103b157818110156103a257604051637dc7a0d960e11b81526001600160a01b038416600482015260248101829052604481018390526064016102d9565b6103b184848484036000610450565b50505050565b6001600160a01b0383166103e157604051634b637e8f60e11b8152600060048201526024016102d9565b6001600160a01b03821661040b5760405163ec442f0560e01b8152600060048201526024016102d9565b610334838383610525565b6001600160a01b0382166104405760405163ec442f0560e01b8152600060048201526024016102d9565b61044c60008383610525565b5050565b6001600160a01b03841661047a5760405163e602df0560e01b8152600060048201526024016102d9565b6001600160a01b0383166104a457604051634a1406b160e11b8152600060048201526024016102d9565b6001600160a01b03808516600090815260016020908152604080832093871683529290522082905580156103b157826001600160a01b0316846001600160a01b03167f8c5be1e5ebec7d5bd14f71427d1e84f3dd0314c0f7b2291e5b200ac8c7c3b9258460405161051791815260200190565b60405180910390a350505050565b6001600160a01b03831661055057806002600082825461054591906107ae565b909155506105c29050565b6001600160a01b038316600090815260208190526040902054818110156105a35760405163391434e360e21b81526001600160a01b038516600482015260248101829052604481018390526064016102d9565b6001600160a01b03841660009081526020819052604090209082900390555b6001600160a01b0382166105de576002805482900390556105fd565b6001600160a01b03821660009081526020819052604090208054820190555b816001600160a01b0316836001600160a01b03167fddf252ad1be2c89b69c2b068fc378daa952ba7f163c4a11628f55a4df523b3ef8360405161064291815260200190565b60405180910390a3505050565b600060208083528351808285015260005b8181101561067c57858101830151858201604001528201610660565b506000604082860101526040601f19601f8301168501019250505092915050565b80356001600160a01b03811681146106b457600080fd5b919050565b600080604083850312156106cc57600080fd5b6106d58361069d565b946020939093013593505050565b6000806000606084860312156106f857600080fd5b6107018461069d565b925061070f6020850161069d565b9150604084013590509250925092565b60006020828403121561073157600080fd5b61073a8261069d565b9392505050565b6000806040838503121561075457600080fd5b61075d8361069d565b915061076b6020840161069d565b90509250929050565b600181811c9082168061078857607f821691505b6020821081036107a857634e487b7160e01b600052602260045260246000fd5b50919050565b8082018082111561024557634e487b7160e01b600052601160045260246000fdfea26469706673582212205ec10588951daeba291a69880ab2c4e24d441d43587602d7a5c68be064ca7dc964736f6c63430008140033",
  "linkReferences": {},
  "deployedLinkReferences": {}
}